{
  "_format": "hh-sol-artifact-1",
  "contractName": "AdBase",
  "sourceName": "contracts/AdBase.sol",
  "abi": [
    {
      "inputs": [
        {
          "internalType": "address",
          "name": "_org",
          "type": "address"
        }
      ],
      "stateMutability": "nonpayable",
      "type": "constructor"
    },
    {
      "anonymous": false,
      "inputs": [
        {
          "indexed": false,
          "internalType": "uint256",
          "name": "campaignId",
          "type": "uint256"
        },
        {
          "indexed": false,
          "internalType": "address",
          "name": "creator",
          "type": "address"
        },
        {
          "indexed": false,
          "internalType": "string",
          "name": "region",
          "type": "string"
        },
        {
          "indexed": false,
          "internalType": "string",
          "name": "campaignName",
          "type": "string"
        },
        {
          "indexed": false,
          "internalType": "uint256",
          "name": "spendingLimit",
          "type": "uint256"
        },
        {
          "indexed": false,
          "internalType": "string[]",
          "name": "adCIDs",
          "type": "string[]"
        }
      ],
      "name": "CampaignCreated",
      "type": "event"
    },
    {
      "anonymous": false,
      "inputs": [
        {
          "indexed": false,
          "internalType": "address",
          "name": "developer",
          "type": "address"
        },
        {
          "indexed": false,
          "internalType": "uint256",
          "name": "amount",
          "type": "uint256"
        }
      ],
      "name": "Payout",
      "type": "event"
    },
    {
      "inputs": [],
      "name": "CPC",
      "outputs": [
        {
          "internalType": "uint256",
          "name": "",
          "type": "uint256"
        }
      ],
      "stateMutability": "view",
      "type": "function"
    },
    {
      "inputs": [],
      "name": "campaignCounter",
      "outputs": [
        {
          "internalType": "uint256",
          "name": "",
          "type": "uint256"
        }
      ],
      "stateMutability": "view",
      "type": "function"
    },
    {
      "inputs": [
        {
          "internalType": "uint256",
          "name": "",
          "type": "uint256"
        }
      ],
      "name": "campaigns",
      "outputs": [
        {
          "internalType": "address",
          "name": "creator",
          "type": "address"
        },
        {
          "internalType": "string",
          "name": "region",
          "type": "string"
        },
        {
          "internalType": "string",
          "name": "campaignName",
          "type": "string"
        },
        {
          "internalType": "uint256",
          "name": "spendingLimit",
          "type": "uint256"
        },
        {
          "internalType": "bool",
          "name": "isActive",
          "type": "bool"
        }
      ],
      "stateMutability": "view",
      "type": "function"
    },
    {
      "inputs": [
        {
          "internalType": "string",
          "name": "_region",
          "type": "string"
        },
        {
          "internalType": "string",
          "name": "_campaignName",
          "type": "string"
        },
        {
          "internalType": "uint256",
          "name": "_spendingLimit",
          "type": "uint256"
        },
        {
          "internalType": "string[]",
          "name": "_adCIDs",
          "type": "string[]"
        }
      ],
      "name": "createCampaign",
      "outputs": [],
      "stateMutability": "payable",
      "type": "function"
    },
    {
      "inputs": [
        {
          "internalType": "uint256",
          "name": "campaignId",
          "type": "uint256"
        }
      ],
      "name": "getAds",
      "outputs": [
        {
          "internalType": "string[]",
          "name": "",
          "type": "string[]"
        }
      ],
      "stateMutability": "view",
      "type": "function"
    },
    {
      "inputs": [
        {
          "internalType": "address",
          "name": "user",
          "type": "address"
        }
      ],
      "name": "getUserCampaigns",
      "outputs": [
        {
          "internalType": "uint256[]",
          "name": "",
          "type": "uint256[]"
        }
      ],
      "stateMutability": "view",
      "type": "function"
    },
    {
      "inputs": [],
      "name": "org",
      "outputs": [
        {
          "internalType": "address",
          "name": "",
          "type": "address"
        }
      ],
      "stateMutability": "view",
      "type": "function"
    },
    {
      "inputs": [
        {
          "internalType": "uint256",
          "name": "campaignId",
          "type": "uint256"
        },
        {
          "internalType": "uint256",
          "name": "_spentAmount",
          "type": "uint256"
        }
      ],
      "name": "pauseCampaign",
      "outputs": [],
      "stateMutability": "payable",
      "type": "function"
    },
    {
      "inputs": [
        {
          "internalType": "address",
          "name": "developer",
          "type": "address"
        },
        {
          "internalType": "uint256",
          "name": "amount",
          "type": "uint256"
        }
      ],
      "name": "payout",
      "outputs": [],
      "stateMutability": "nonpayable",
      "type": "function"
    },
    {
      "inputs": [
        {
          "internalType": "address",
          "name": "",
          "type": "address"
        }
      ],
      "name": "payouts",
      "outputs": [
        {
          "internalType": "uint256",
          "name": "",
          "type": "uint256"
        }
      ],
      "stateMutability": "view",
      "type": "function"
    },
    {
      "inputs": [
        {
          "internalType": "address",
          "name": "",
          "type": "address"
        },
        {
          "internalType": "uint256",
          "name": "",
          "type": "uint256"
        }
      ],
      "name": "userCampaigns",
      "outputs": [
        {
          "internalType": "uint256",
          "name": "",
          "type": "uint256"
        }
      ],
      "stateMutability": "view",
      "type": "function"
    }
  ],
  "bytecode": "0x60806040526509184e72a0006005553480156200001b57600080fd5b5060405162001bcd38038062001bcd8339818101604052810190620000419190620000fa565b806000806101000a81548173ffffffffffffffffffffffffffffffffffffffff021916908373ffffffffffffffffffffffffffffffffffffffff1602179055506000600181905550506200012c565b600080fd5b600073ffffffffffffffffffffffffffffffffffffffff82169050919050565b6000620000c28262000095565b9050919050565b620000d481620000b5565b8114620000e057600080fd5b50565b600081519050620000f481620000c9565b92915050565b60006020828403121562000113576200011262000090565b5b60006200012384828501620000e3565b91505092915050565b611a91806200013c6000396000f3fe60806040526004361061009c5760003560e01c80634ccd3008116100645780634ccd3008146101a157806365bcfbe7146101cc578063a1e5084c14610209578063c99dd60c14610246578063cc1e2cb014610262578063fca604d71461028d5761009c565b8063117de2fd146100a1578063141961bc146100ca57806319ac74bd1461010b57806334a54260146101485780633c84899c14610185575b600080fd5b3480156100ad57600080fd5b506100c860048036038101906100c39190610cb6565b6102b8565b005b3480156100d657600080fd5b506100f160048036038101906100ec9190610cf6565b610439565b604051610102959493929190610dec565b60405180910390f35b34801561011757600080fd5b50610132600480360381019061012d9190610cb6565b6105ac565b60405161013f9190610e4d565b60405180910390f35b34801561015457600080fd5b5061016f600480360381019061016a9190610cf6565b6105dd565b60405161017c9190610f74565b60405180910390f35b61019f600480360381019061019a9190610f96565b6106cc565b005b3480156101ad57600080fd5b506101b6610832565b6040516101c39190610e4d565b60405180910390f35b3480156101d857600080fd5b506101f360048036038101906101ee9190610fd6565b610838565b6040516102009190610e4d565b60405180910390f35b34801561021557600080fd5b50610230600480360381019061022b9190610fd6565b610850565b60405161023d91906110c1565b60405180910390f35b610260600480360381019061025b91906112fe565b6108e7565b005b34801561026e57600080fd5b50610277610b0a565b60405161028491906113b9565b60405180910390f35b34801561029957600080fd5b506102a2610b2e565b6040516102af9190610e4d565b60405180910390f35b60008054906101000a900473ffffffffffffffffffffffffffffffffffffffff1673ffffffffffffffffffffffffffffffffffffffff163373ffffffffffffffffffffffffffffffffffffffff1614610346576040517f08c379a000000000000000000000000000000000000000000000000000000000815260040161033d90611420565b60405180910390fd5b804711610388576040517f08c379a000000000000000000000000000000000000000000000000000000000815260040161037f9061148c565b60405180910390fd5b60008273ffffffffffffffffffffffffffffffffffffffff16826040516103ae906114dd565b60006040518083038185875af1925050503d80600081146103eb576040519150601f19603f3d011682016040523d82523d6000602084013e6103f0565b606091505b5050905080610434576040517f08c379a000000000000000000000000000000000000000000000000000000000815260040161042b9061153e565b60405180910390fd5b505050565b60026020528060005260406000206000915090508060000160009054906101000a900473ffffffffffffffffffffffffffffffffffffffff16908060010180546104829061158d565b80601f01602080910402602001604051908101604052809291908181526020018280546104ae9061158d565b80156104fb5780601f106104d0576101008083540402835291602001916104fb565b820191906000526020600020905b8154815290600101906020018083116104de57829003601f168201915b5050505050908060020180546105109061158d565b80601f016020809104026020016040519081016040528092919081815260200182805461053c9061158d565b80156105895780601f1061055e57610100808354040283529160200191610589565b820191906000526020600020905b81548152906001019060200180831161056c57829003601f168201915b5050505050908060030154908060050160009054906101000a900460ff16905085565b600360205281600052604060002081815481106105c857600080fd5b90600052602060002001600091509150505481565b606060026000838152602001908152602001600020600401805480602002602001604051908101604052809291908181526020016000905b828210156106c15783829060005260206000200180546106349061158d565b80601f01602080910402602001604051908101604052809291908181526020018280546106609061158d565b80156106ad5780601f10610682576101008083540402835291602001916106ad565b820191906000526020600020905b81548152906001019060200180831161069057829003601f168201915b505050505081526020019060010190610615565b505050509050919050565b60008054906101000a900473ffffffffffffffffffffffffffffffffffffffff1673ffffffffffffffffffffffffffffffffffffffff163373ffffffffffffffffffffffffffffffffffffffff161461075a576040517f08c379a000000000000000000000000000000000000000000000000000000000815260040161075190611420565b60405180910390fd5b600060026000848152602001908152602001600020905060003373ffffffffffffffffffffffffffffffffffffffff1683836003015461079a91906115ed565b6040516107a6906114dd565b60006040518083038185875af1925050503d80600081146107e3576040519150601f19603f3d011682016040523d82523d6000602084013e6107e8565b606091505b505090508061082c576040517f08c379a000000000000000000000000000000000000000000000000000000000815260040161082390611693565b60405180910390fd5b50505050565b60055481565b60046020528060005260406000206000915090505481565b6060600360008373ffffffffffffffffffffffffffffffffffffffff1673ffffffffffffffffffffffffffffffffffffffff1681526020019081526020016000208054806020026020016040519081016040528092919081815260200182805480156108db57602002820191906000526020600020905b8154815260200190600101908083116108c7575b50505050509050919050565b813414610929576040517f08c379a0000000000000000000000000000000000000000000000000000000008152600401610920906116ff565b60405180910390fd5b6040518060c001604052803373ffffffffffffffffffffffffffffffffffffffff1681526020018581526020018481526020018381526020018281526020016001151581525060026000600154815260200190815260200160002060008201518160000160006101000a81548173ffffffffffffffffffffffffffffffffffffffff021916908373ffffffffffffffffffffffffffffffffffffffff16021790555060208201518160010190816109e091906118cb565b5060408201518160020190816109f691906118cb565b50606082015181600301556080820151816004019080519060200190610a1d929190610b34565b5060a08201518160050160006101000a81548160ff021916908315150217905550905050600360003373ffffffffffffffffffffffffffffffffffffffff1673ffffffffffffffffffffffffffffffffffffffff168152602001908152602001600020600154908060018154018082558091505060019003906000526020600020016000909190919091505560016000815480929190610abc9061199d565b91905055507f1c8729f16ab80b4459d88ddf24ff843da549702ea14ea40aa065c6f608b1dc556001543386868686604051610afc969594939291906119e5565b60405180910390a150505050565b60008054906101000a900473ffffffffffffffffffffffffffffffffffffffff1681565b60015481565b828054828255906000526020600020908101928215610b7c579160200282015b82811115610b7b578251829081610b6b91906118cb565b5091602001919060010190610b54565b5b509050610b899190610b8d565b5090565b5b80821115610bad5760008181610ba49190610bb1565b50600101610b8e565b5090565b508054610bbd9061158d565b6000825580601f10610bcf5750610bee565b601f016020900490600052602060002090810190610bed9190610bf1565b5b50565b5b80821115610c0a576000816000905550600101610bf2565b5090565b6000604051905090565b600080fd5b600080fd5b600073ffffffffffffffffffffffffffffffffffffffff82169050919050565b6000610c4d82610c22565b9050919050565b610c5d81610c42565b8114610c6857600080fd5b50565b600081359050610c7a81610c54565b92915050565b6000819050919050565b610c9381610c80565b8114610c9e57600080fd5b50565b600081359050610cb081610c8a565b92915050565b60008060408385031215610ccd57610ccc610c18565b5b6000610cdb85828601610c6b565b9250506020610cec85828601610ca1565b9150509250929050565b600060208284031215610d0c57610d0b610c18565b5b6000610d1a84828501610ca1565b91505092915050565b610d2c81610c42565b82525050565b600081519050919050565b600082825260208201905092915050565b60005b83811015610d6c578082015181840152602081019050610d51565b60008484015250505050565b6000601f19601f8301169050919050565b6000610d9482610d32565b610d9e8185610d3d565b9350610dae818560208601610d4e565b610db781610d78565b840191505092915050565b610dcb81610c80565b82525050565b60008115159050919050565b610de681610dd1565b82525050565b600060a082019050610e016000830188610d23565b8181036020830152610e138187610d89565b90508181036040830152610e278186610d89565b9050610e366060830185610dc2565b610e436080830184610ddd565b9695505050505050565b6000602082019050610e626000830184610dc2565b92915050565b600081519050919050565b600082825260208201905092915050565b6000819050602082019050919050565b600082825260208201905092915050565b6000610eb082610d32565b610eba8185610e94565b9350610eca818560208601610d4e565b610ed381610d78565b840191505092915050565b6000610eea8383610ea5565b905092915050565b6000602082019050919050565b6000610f0a82610e68565b610f148185610e73565b935083602082028501610f2685610e84565b8060005b85811015610f625784840389528151610f438582610ede565b9450610f4e83610ef2565b925060208a01995050600181019050610f2a565b50829750879550505050505092915050565b60006020820190508181036000830152610f8e8184610eff565b905092915050565b60008060408385031215610fad57610fac610c18565b5b6000610fbb85828601610ca1565b9250506020610fcc85828601610ca1565b9150509250929050565b600060208284031215610fec57610feb610c18565b5b6000610ffa84828501610c6b565b91505092915050565b600081519050919050565b600082825260208201905092915050565b6000819050602082019050919050565b61103881610c80565b82525050565b600061104a838361102f565b60208301905092915050565b6000602082019050919050565b600061106e82611003565b611078818561100e565b93506110838361101f565b8060005b838110156110b457815161109b888261103e565b97506110a683611056565b925050600181019050611087565b5085935050505092915050565b600060208201905081810360008301526110db8184611063565b905092915050565b600080fd5b600080fd5b7f4e487b7100000000000000000000000000000000000000000000000000000000600052604160045260246000fd5b61112582610d78565b810181811067ffffffffffffffff82111715611144576111436110ed565b5b80604052505050565b6000611157610c0e565b9050611163828261111c565b919050565b600067ffffffffffffffff821115611183576111826110ed565b5b61118c82610d78565b9050602081019050919050565b82818337600083830152505050565b60006111bb6111b684611168565b61114d565b9050828152602081018484840111156111d7576111d66110e8565b5b6111e2848285611199565b509392505050565b600082601f8301126111ff576111fe6110e3565b5b813561120f8482602086016111a8565b91505092915050565b600067ffffffffffffffff821115611233576112326110ed565b5b602082029050602081019050919050565b600080fd5b600061125c61125784611218565b61114d565b9050808382526020820190506020840283018581111561127f5761127e611244565b5b835b818110156112c657803567ffffffffffffffff8111156112a4576112a36110e3565b5b8086016112b189826111ea565b85526020850194505050602081019050611281565b5050509392505050565b600082601f8301126112e5576112e46110e3565b5b81356112f5848260208601611249565b91505092915050565b6000806000806080858703121561131857611317610c18565b5b600085013567ffffffffffffffff81111561133657611335610c1d565b5b611342878288016111ea565b945050602085013567ffffffffffffffff81111561136357611362610c1d565b5b61136f878288016111ea565b935050604061138087828801610ca1565b925050606085013567ffffffffffffffff8111156113a1576113a0610c1d565b5b6113ad878288016112d0565b91505092959194509250565b60006020820190506113ce6000830184610d23565b92915050565b7f43616c6c6572206973206e6f7420746865206f7267616e697a6174696f6e0000600082015250565b600061140a601e83610d3d565b9150611415826113d4565b602082019050919050565b60006020820190508181036000830152611439816113fd565b9050919050565b7f4e6f7420656e6f7567682062616c616e63650000000000000000000000000000600082015250565b6000611476601283610d3d565b915061148182611440565b602082019050919050565b600060208201905081810360008301526114a581611469565b9050919050565b600081905092915050565b50565b60006114c76000836114ac565b91506114d2826114b7565b600082019050919050565b60006114e8826114ba565b9150819050919050565b7f4661696c656420746f205472616e736665722121000000000000000000000000600082015250565b6000611528601483610d3d565b9150611533826114f2565b602082019050919050565b600060208201905081810360008301526115578161151b565b9050919050565b7f4e487b7100000000000000000000000000000000000000000000000000000000600052602260045260246000fd5b600060028204905060018216806115a557607f821691505b6020821081036115b8576115b761155e565b5b50919050565b7f4e487b7100000000000000000000000000000000000000000000000000000000600052601160045260246000fd5b60006115f882610c80565b915061160383610c80565b925082820390508181111561161b5761161a6115be565b5b92915050565b7f4661696c656420746f20776974686472617720616e642070617375652063616d60008201527f706169676e212100000000000000000000000000000000000000000000000000602082015250565b600061167d602783610d3d565b915061168882611621565b604082019050919050565b600060208201905081810360008301526116ac81611670565b9050919050565b7f496e76616c696420416d6f756e74000000000000000000000000000000000000600082015250565b60006116e9600e83610d3d565b91506116f4826116b3565b602082019050919050565b60006020820190508181036000830152611718816116dc565b9050919050565b60008190508160005260206000209050919050565b60006020601f8301049050919050565b600082821b905092915050565b6000600883026117817fffffffffffffffffffffffffffffffffffffffffffffffffffffffffffffffff82611744565b61178b8683611744565b95508019841693508086168417925050509392505050565b6000819050919050565b60006117c86117c36117be84610c80565b6117a3565b610c80565b9050919050565b6000819050919050565b6117e2836117ad565b6117f66117ee826117cf565b848454611751565b825550505050565b600090565b61180b6117fe565b6118168184846117d9565b505050565b5b8181101561183a5761182f600082611803565b60018101905061181c565b5050565b601f82111561187f576118508161171f565b61185984611734565b81016020851015611868578190505b61187c61187485611734565b83018261181b565b50505b505050565b600082821c905092915050565b60006118a260001984600802611884565b1980831691505092915050565b60006118bb8383611891565b9150826002028217905092915050565b6118d482610d32565b67ffffffffffffffff8111156118ed576118ec6110ed565b5b6118f7825461158d565b61190282828561183e565b600060209050601f8311600181146119355760008415611923578287015190505b61192d85826118af565b865550611995565b601f1984166119438661171f565b60005b8281101561196b57848901518255600182019150602085019450602081019050611946565b868310156119885784890151611984601f891682611891565b8355505b6001600288020188555050505b505050505050565b60006119a882610c80565b91507fffffffffffffffffffffffffffffffffffffffffffffffffffffffffffffffff82036119da576119d96115be565b5b600182019050919050565b600060c0820190506119fa6000830189610dc2565b611a076020830188610d23565b8181036040830152611a198187610d89565b90508181036060830152611a2d8186610d89565b9050611a3c6080830185610dc2565b81810360a0830152611a4e8184610eff565b905097965050505050505056fea26469706673582212205b5c8334dd71c3692eaf8586ef08a44ae956a6dadccbe479f0745a2bcd46621c64736f6c63430008180033",
  "linkReferences": {},
  "deployedLinkReferences": {}
}